{
  "contractName": "ICO1010",
  "abi": [
    {
      "constant": true,
      "inputs": [],
      "name": "tokenSold",
      "outputs": [
        {
          "name": "",
          "type": "uint256"
        }
      ],
      "payable": false,
      "stateMutability": "view",
      "type": "function"
    },
    {
      "constant": true,
      "inputs": [],
      "name": "Token1010Contract",
      "outputs": [
        {
          "name": "",
          "type": "address"
        }
      ],
      "payable": false,
      "stateMutability": "view",
      "type": "function"
    },
    {
      "constant": true,
      "inputs": [],
      "name": "tokenPrice",
      "outputs": [
        {
          "name": "",
          "type": "uint256"
        }
      ],
      "payable": false,
      "stateMutability": "view",
      "type": "function"
    },
    {
      "constant": true,
      "inputs": [],
      "name": "admin",
      "outputs": [
        {
          "name": "",
          "type": "address"
        }
      ],
      "payable": false,
      "stateMutability": "view",
      "type": "function"
    },
    {
      "inputs": [
        {
          "name": "_Token1010Address",
          "type": "address"
        },
        {
          "name": "_tokenPrice",
          "type": "uint256"
        }
      ],
      "payable": true,
      "stateMutability": "payable",
      "type": "constructor"
    },
    {
      "anonymous": false,
      "inputs": [
        {
          "indexed": false,
          "name": "_to",
          "type": "address"
        },
        {
          "indexed": false,
          "name": "_value",
          "type": "uint256"
        }
      ],
      "name": "Sell",
      "type": "event"
    },
    {
      "anonymous": false,
      "inputs": [
        {
          "indexed": false,
          "name": "active",
          "type": "bool"
        }
      ],
      "name": "Sale",
      "type": "event"
    },
    {
      "constant": false,
      "inputs": [
        {
          "name": "_noOfTokens",
          "type": "uint256"
        }
      ],
      "name": "startSale",
      "outputs": [],
      "payable": false,
      "stateMutability": "nonpayable",
      "type": "function"
    },
    {
      "constant": false,
      "inputs": [
        {
          "name": "_noOfTokens",
          "type": "uint256"
        }
      ],
      "name": "buyToken",
      "outputs": [
        {
          "name": "",
          "type": "bool"
        }
      ],
      "payable": true,
      "stateMutability": "payable",
      "type": "function"
    },
    {
      "constant": false,
      "inputs": [],
      "name": "endSale",
      "outputs": [
        {
          "name": "",
          "type": "bool"
        }
      ],
      "payable": true,
      "stateMutability": "payable",
      "type": "function"
    }
  ],
  "bytecode": "0x608060405260006002556040516040806109bf8339810180604052604081101561002857600080fd5b810190808051906020019092919080519060200190929190505050336000806101000a81548173ffffffffffffffffffffffffffffffffffffffff021916908373ffffffffffffffffffffffffffffffffffffffff1602179055508060018190555081600360006101000a81548173ffffffffffffffffffffffffffffffffffffffff021916908373ffffffffffffffffffffffffffffffffffffffff16021790555050506108e3806100dc6000396000f3fe6080604052600436106100705760003560e01c8063519ee19e1161004e578063519ee19e1461011857806361e19d41146101435780637ff9b5961461019a578063f851a440146101c557610070565b80630e3ab61d146100755780632d296bf1146100b0578063380d831b146100f6575b600080fd5b34801561008157600080fd5b506100ae6004803603602081101561009857600080fd5b810190808035906020019092919050505061021c565b005b6100dc600480360360208110156100c657600080fd5b8101908080359060200190929190505050610314565b604051808215151515815260200191505060405180910390f35b6100fe61057d565b604051808215151515815260200191505060405180910390f35b34801561012457600080fd5b5061012d610860565b6040518082815260200191505060405180910390f35b34801561014f57600080fd5b50610158610866565b604051808273ffffffffffffffffffffffffffffffffffffffff1673ffffffffffffffffffffffffffffffffffffffff16815260200191505060405180910390f35b3480156101a657600080fd5b506101af61088c565b6040518082815260200191505060405180910390f35b3480156101d157600080fd5b506101da610892565b604051808273ffffffffffffffffffffffffffffffffffffffff1673ffffffffffffffffffffffffffffffffffffffff16815260200191505060405180910390f35b600360009054906101000a900473ffffffffffffffffffffffffffffffffffffffff1673ffffffffffffffffffffffffffffffffffffffff1663a0712d68826040518263ffffffff1660e01b815260040180828152602001915050602060405180830381600087803b15801561029157600080fd5b505af11580156102a5573d6000803e3d6000fd5b505050506040513d60208110156102bb57600080fd5b81019080805190602001909291905050506102d557600080fd5b7f3875226dfcbcc1f9d960fb57c08ec839f735bd6446aa9d0cec7503d960b1688e6001604051808215151515815260200191505060405180910390a150565b60006001548202341461032657600080fd5b81600360009054906101000a900473ffffffffffffffffffffffffffffffffffffffff1673ffffffffffffffffffffffffffffffffffffffff166370a08231306040518263ffffffff1660e01b8152600401808273ffffffffffffffffffffffffffffffffffffffff1673ffffffffffffffffffffffffffffffffffffffff16815260200191505060206040518083038186803b1580156103c657600080fd5b505afa1580156103da573d6000803e3d6000fd5b505050506040513d60208110156103f057600080fd5b8101908080519060200190929190505050101561040c57600080fd5b600360009054906101000a900473ffffffffffffffffffffffffffffffffffffffff1673ffffffffffffffffffffffffffffffffffffffff1663a9059cbb33846040518363ffffffff1660e01b8152600401808373ffffffffffffffffffffffffffffffffffffffff1673ffffffffffffffffffffffffffffffffffffffff16815260200182815260200192505050602060405180830381600087803b1580156104b557600080fd5b505af11580156104c9573d6000803e3d6000fd5b505050506040513d60208110156104df57600080fd5b81019080805190602001909291905050506104f957600080fd5b816002600082825401925050819055507f5e5e995ce3133561afceaa51a9a154d5db228cd7525d34df5185582c18d3df093383604051808373ffffffffffffffffffffffffffffffffffffffff1673ffffffffffffffffffffffffffffffffffffffff1681526020018281526020019250505060405180910390a160019050919050565b60008060009054906101000a900473ffffffffffffffffffffffffffffffffffffffff1673ffffffffffffffffffffffffffffffffffffffff163373ffffffffffffffffffffffffffffffffffffffff16146105d857600080fd5b600360009054906101000a900473ffffffffffffffffffffffffffffffffffffffff1673ffffffffffffffffffffffffffffffffffffffff1663a9059cbb6000809054906101000a900473ffffffffffffffffffffffffffffffffffffffff16600360009054906101000a900473ffffffffffffffffffffffffffffffffffffffff1673ffffffffffffffffffffffffffffffffffffffff166370a08231306040518263ffffffff1660e01b8152600401808273ffffffffffffffffffffffffffffffffffffffff1673ffffffffffffffffffffffffffffffffffffffff16815260200191505060206040518083038186803b1580156106d757600080fd5b505afa1580156106eb573d6000803e3d6000fd5b505050506040513d602081101561070157600080fd5b81019080805190602001909291905050506040518363ffffffff1660e01b8152600401808373ffffffffffffffffffffffffffffffffffffffff1673ffffffffffffffffffffffffffffffffffffffff16815260200182815260200192505050602060405180830381600087803b15801561077b57600080fd5b505af115801561078f573d6000803e3d6000fd5b505050506040513d60208110156107a557600080fd5b81019080805190602001909291905050506107bf57600080fd5b3373ffffffffffffffffffffffffffffffffffffffff166108fc3073ffffffffffffffffffffffffffffffffffffffff16319081150290604051600060405180830381858888f1935050505015801561081c573d6000803e3d6000fd5b507f3875226dfcbcc1f9d960fb57c08ec839f735bd6446aa9d0cec7503d960b1688e6000604051808215151515815260200191505060405180910390a16001905090565b60025481565b600360009054906101000a900473ffffffffffffffffffffffffffffffffffffffff1681565b60015481565b6000809054906101000a900473ffffffffffffffffffffffffffffffffffffffff168156fea165627a7a72305820a2e2ea35eb5d25980e54e150cff4d8a8c40049fa7a5262236187d7e8d391aa500029",
  "source": "pragma solidity ^0.5.1;\nimport \"./Token1010.sol\";\n\ncontract  ICO1010{\n\n    address public admin;\n    uint public tokenPrice;\n    uint public tokenSold=0;\n\n    Token1010 public Token1010Contract;\n\n    event Sell(address _to, uint _value);\n    event Sale(bool active);\n\n    constructor(Token1010 _Token1010Address, uint _tokenPrice) public payable{\n        admin = msg.sender;\n        tokenPrice = _tokenPrice;\n        Token1010Contract =_Token1010Address;\n    }\n\n    function startSale(uint _noOfTokens) public{\n        require(Token1010Contract.mint(_noOfTokens));\n        emit Sale(true);\n    }\n\n\n    function buyToken(uint _noOfTokens) public payable returns(bool){\n        require(msg.value == _noOfTokens*tokenPrice);\n        require(Token1010Contract.balanceOf(address(this)) >= _noOfTokens);\n        require(Token1010Contract.transfer(msg.sender,_noOfTokens));\n\n        tokenSold += _noOfTokens;\n        emit Sell(msg.sender,_noOfTokens);\n        return true;\n    }\n\n    function endSale() public payable returns(bool){\n        require(msg.sender == admin);\n        require(Token1010Contract.transfer(admin,Token1010Contract.balanceOf(address(this))));\n\n        msg.sender.transfer(address(this).balance);\n\n        emit Sale(false);\n        return true;\n    }\n\n}\n",
  "sourcePath": "/home/pudio/Documents/atomprojects/Token1010/contracts/ICO1010.sol",
  "compiler": {
    "name": "solc",
    "version": "0.5.8+commit.23d335f2.Emscripten.clang"
  },
  "schemaVersion": "3.0.11",
  "updatedAt": "2019-06-26T11:31:29.996Z",
  "devdoc": {
    "methods": {}
  },
  "userdoc": {
    "methods": {}
  }
}